:020000040800F2
:10000000900400209D01000821180008A7050008A1
:100010001D1800086D0300080723000800000000F9
:10002000000000000000000000000000391A000875
:1000300099030008000000009D180008291B000813
:10004000B7010008B7010008B7010008B7010008B0
:10005000B7010008B7010008B7010008B7010008A0
:10006000B7010008B7010008B7010008B701000890
:10007000B7010008B7010008B7010008B701000880
:10008000B7010008B7010008B7010008B701000870
:10009000B7010008B7010008B7010008B701000860
:1000A0002D1D0008B7010008B7010008B7010008BE
:1000B000B7010008B7010008B7010008B701000840
:1000C000B7010008B7010008B7010008B701000830
:1000D000B7010008B701000881210008B701000836
:1000E000B7010008B7010008B7010008B701000810
:1000F000B7010008B7010008B7010008B701000800
:10010000B7010008B7010008B7010008B7010008EF
:10011000B7010008B7010008B7010008B7010008DF
:10012000B7010008B7010008B7010008B7010008CF
:10013000B7010008B7010008B7010008B7010008BF
:10014000B7010008B7010008B7010008B7010008AF
:10015000B7010008B7010008B7010008B70100089F
:10016000B7010008B7010008B7010008B70100088F
:10017000B7010008B7010008B7010008B70100087F
:10018000B7010008B7010008DFF80CD000F07AF8DA
:100190000048004741280008900400200648804796
:1001A00006480047FEE7FEE7FEE7FEE7FEE7FEE75C
:1001B000FEE7FEE7FEE7FEE7A11B00088901000855
:1001C00040EA01039B0703D009E008C9121F08C0D9
:1001D000042AFAD203E011F8013B00F8013B521E59
:1001E000F9D270472DE9F05F0546002092469B4604
:1001F00088460646814640241BE02846414647463D
:10020000224600F02FF853465A46C01A914110D3A7
:1002100011461846224600F016F82D1A67EB010821
:100220004F4622460120002100F00DF817EB00098F
:100230004E41201EA4F10104DFDC484631462A4627
:100240004346BDE8F09F202A04DB203A00FA02F181
:10025000002070479140C2F1200320FA03F31943B4
:1002600090407047202A04DB203A21FA02F0002156
:10027000704721FA02F3D040C2F1200291400843B6
:1002800019467047064C074D06E0E06840F0010350
:1002900094E8070098471034AC42F6D3FFF778FF94
:1002A000BC300008DC3000081CB50121072001F03B
:1002B0000FFB00208DF8040001208DF807000020BE
:1002C0008DF80500012000906946254800F0F3F8FC
:1002D0004FF4005000906946224800F0ECF84020AE
:1002E000009069461F4800F0E6F8802000906946BB
:1002F0001C4800F0E0F801208DF8040000208DF883
:1003000006008DF807008DF8050020200090694652
:10031000154800F0D0F8012000906946124800F01E
:10032000CAF80220009069460F4800F0C4F84FF464
:100330008070009069460A4800F0BDF820210A4804
:1003400000F02FF90121084800F02BF9022106489E
:1003500000F027F94FF48071014800F022F91CBD2C
:1003600000000240000802400004024000BFFEE717
:1003700010B54FF48071024800F013F910BD000071
:100380000000024010B54FF48071024800F007F9F8
:1003900010BD0000000002407047000051B1820013
:1003A000A2F1C042126842F001038200A2F1C042F1
:1003B000136009E08200A2F1C0421268034B1A40A8
:1003C0008300A3F1C0431A6070470000FEFF0F00D6
:1003D000D0E901121143C268114302691143426915
:1003E000114382691143C2691143026A1143426A8F
:1003F0001143826A1143C26A1143026B11430268BE
:100400009200A2F1C0421160816808290BD10168F5
:100410008900A1F1C041096841F0400201688900EA
:10042000A1F1C0410A60416B0968426B526841EA20
:100430000211426B926841EA0221426B928941EAC1
:100440000241426B128A41EA0251426B127D41EA3B
:100450000261426B926911430268521C9200A2F140
:10046000C0421160C16AB1F5804F1BD1816B096830
:10047000826B526841EA0211826B926841EA022162
:10048000826B128A41EA0251826B127D41EA02615B
:10049000826B9269114302689200A2F1C042C2F8D5
:1004A000041107E06FF0704201688900A1F1C041BA
:1004B000C1F804217047F0B50A460021002300244A
:1004C00000BF3DE0012505FA01F3156805EA0304C4
:1004D0009C4234D105684F000326BE40B5430560F9
:1004E00015794E00B5400668354305601579012D34
:1004F00002D01579022D16D185684F000326BE4023
:10050000B543856055794E00B540866835438560B2
:10051000456801268E40B5434560456896798E4012
:10052000B6B235434560C5684F000326BE40B543AB
:10053000C560D5794E00B540C6683543C560491CD5
:100540001029BFD3F0BDF0B5002300244D07ED0EF8
:1005500002FA05F3CE1000F1200555F826504E079B
:10056000F70E0F26BE40B543CF1000F1200646F827
:100570002750CE1000F1200555F8265045EA030417
:10058000CE1000F1200545F82640F0BD02460020BF
:1005900013690B400BB1012000E00020704741833C
:1005A00070470183704700BFFEE7000010B50446A6
:1005B0002CB14FF480510548FFF7F1FF04E04FF4F0
:1005C00080510248FFF7EDFF10BD0000000C024013
:1005D00000B597B00121084601F08AF90620019084
:1005E00000200290062003900020049005900690C1
:1005F0000790089009900A9010200B9000200C9012
:100600000D900E900F9010904FF48050119000209C
:1006100012901390149001A81590169008A8FFF757
:10062000D7FE01210020FFF7B9FE17B000BD000082
:1006300010B500222C23DC06238000BF02E0034B10
:100640001980521C8242FAD310BD000000000260E3
:100650001CB50121182001F03BF94CF6B370009055
:1006600002208DF804008DF8050000208DF80600AA
:100670008DF8070069464348FFF71DFF4FF680706D
:10068000009069464048FFF716FF0C2200213D48C4
:10069000FFF759FF0C2201213A48FFF754FF0C22C3
:1006A00004213848FFF74FFF0C2205213548FFF79A
:1006B0004AFF0C2207213348FFF745FF0C2208218F
:1006C0003048FFF740FF0C2209212E48FFF73BFF7F
:1006D0000C220A212B48FFF736FF0C220B21294858
:1006E000FFF731FF0C220E212648FFF72CFF0C22CA
:1006F0000F212448FFF727FF0C2207212248FFF78C
:1007000022FF0C2208212048FFF71DFF0C2209219F
:100710001D48FFF718FF0C220A211B48FFF713FFA3
:100720000C220B211848FFF70EFF0C221146164829
:10073000FFF709FF0C220D211348FFF704FF0C22DD
:100740000E211148FFF7FFFE0C220F210E48FFF784
:10075000FAFE4FF48050009001208DF80400002034
:100760008DF805008DF806008DF8070069460548EC
:10077000FFF7A1FE0220009069460348FFF79BFEA9
:100780001CBD0000000C02400010024010B50446E1
:10079000072C00DD10BD16480470204604EBD07114
:1007A0004910A4EB410139B9F020124908804FF4F7
:1007B000A0701149088006E04FF4A0700D49088030
:1007C000F0200D490880362001070880082040EA03
:1007D00044100A4908800848038806480288002116
:1007E000084600F00DF82C20C106088000BFD1E7B4
:1007F0001C000020220000202400002000000260D5
:1008000030B52A244FF0C0452C8004120F4D2C80A7
:10081000C4B22C808418641EC4F30F242C80841866
:10082000641EE4B22C802B2465072C800C12074D2B
:100830002C80CCB22C80CC18641EC4F30F242C80E6
:10084000CC18641EE4B22C8030BD000000000260B1
:1008500010B501204FF0C0410880782001F0C0FFA2
:1008600028204FF0C04108803A20088055200B49CD
:10087000088011204FF0C0410880642001F0B0FFD3
:1008800029204FF0C0410880642001F0A9FF2C20EE
:10089000C1060880052001F0A3FF10BD0000026022
:1008A00010B502210648FFF77AFE052001F098FFF7
:1008B00002210348FFF775FE052001F091FF10BDEE
:1008C000001002401CB50121102001F001F8202089
:1008D000009002208DF804008DF8050001208DF8AD
:1008E000070069460448FFF7E6FD03220521024898
:1008F000FFF729FE1CBD0000001002402DE9F04F5B
:100900008DB005460C46484806681422474908A899
:10091000FFF756FC454B14330FCB04AF0FC74448C9
:100920000078002808DD43480068301AB0F5FA7FE7
:1009300002D900203E490870A52D04D0A62D0AD06A
:10094000A72D65D11AE03C48047001203849087091
:100950003848066064E036480078012807D13748F7
:1009600004700220324908703248066005E0002019
:100970002F49087032A001F0C9FC51E02C480078E2
:1009800002283ED13A4804700020294908702A48BC
:1009900000784FEAD01928480078C0F3021726489B
:1009A0000078C0F3810824480078C0F3400A234847
:1009B000007803902E4890F800B0BAF1000F01D0F3
:1009C0002CA100E02CA1B8F1040F03DA04A850F820
:1009D000280000E029A08DE80308052F03DA08A805
:1009E00050F8270000E025A00346B9F1000F01D020
:1009F00020A000E020A001462248039A01F086FCD6
:100A000005E000200A4908701FA001F07FFC07E004
:100A1000002007490870294627A001F077FC00BF95
:100A200000BF0DB0BDE8F08F380000201C3000087A
:100A300061000020640000205E0000205F000020B4
:100A40004952204465636F6465643A204661696C6D
:100A5000656420287365712065727220617420546A
:100A6000656D70206672616D65290D0A00000000D9
:100A7000600000204F4E00004F464600556E6B6EE2
:100A80006F776E00403000084952204465636F6400
:100A900065643A204661696C65642028736571203D
:100AA0006572722061742054696D6572206672618E
:100AB0006D65290D0A0000004952204465636F648A
:100AC00065643A204661696C65642028756E6B6EBA
:100AD0006F776E2061646472203078253032582937
:100AE0000D0A00002DE9F0410027B84618480078AB
:100AF00000F0400008B9BDE8F0811548007820F00A
:100B0000400013490870134804780088C0F3072692
:100B100010480068C0F307450E4800684FEA1068A7
:100B200000200C4908606FEA0800C0B2A84200D05B
:100B3000E1E7F043C0B2A04203D00648008887B284
:100B400000E0274629463846FFF7D8FE00BFD2E727
:100B5000000000200C00002010B5FFF7B3FE00F0ED
:100B6000E7F810BD70B505460C4600F0A5FE42F250
:100B7000283001F02BFF00F093FE41F2941001F0B9
:100B800025FF284600F0B4F8E943C8B200F0B0F8F9
:100B9000204600F0ADF8E143C8B200F0A9F800F03B
:100BA0008BFE4FF40C7001F011FF00F079FE70BD68
:100BB00070B51F480078C0011E49097801F007018F
:100BC00040EA01101C49097801F0030140EA810064
:100BD0001A49097809B1012100E0002140EA4100E9
:100BE000C4B2174805781548007810B11548007848
:100BF00000E0002006462146A520FFF7B3FF1420A1
:100C000001F0EEFDFFF76EFF2946A620FFF7AAFFD1
:100C1000142001F0E5FDFFF765FF3146A720FFF73F
:100C2000A1FF142001F0DCFDFFF75CFF70BD0000A8
:100C30003C0000203D000020400000204800002033
:100C40003F0000204A0000201CB50121022000F0D6
:100C50003FFE4FF48070009002208DF804000320C6
:100C60008DF8050000208DF806008DF80700694614
:100C70000448FFF720FC032208210248FFF763FC29
:100C80001CBD00000004024010B5FFF7DDFF00F0BE
:100C900001F810BD00B589B00121480400F048FEFC
:100CA00041F2451007900120ADF818000020ADF882
:100CB0002000ADF81A0006A90C4801F0C9F960201F
:100CC000ADF804000120ADF8060040F6A200039044
:100CD0000020ADF8100001A9044801F04DF90122EF
:100CE0000021024801F0CCF809B000BD00440140E9
:100CF00070B50446002500BF16E000F0DDFD4FF49E
:100D00000C7001F063FE00F0CBFD04F0010020B197
:100D10004FF4D26001F05AFE03E04FF40C7001F082
:100D200055FE6410681CC5B2082DE6DB70BD0000DE
:100D300000B587B00121080400F0FAFD42F21070FE
:100D40000490A720ADF80C000020ADF81400ADF819
:100D50000E0003A9174801F07BF90020ADF8000050
:100D6000ADF802000120ADF804000020ADF8060047
:100D70000320ADF8080069460E4801F0BCF80122D6
:100D800003210C4801F0EEF801210A4801F08AF82D
:100D900018208DF8180001208DF8190003208DF817
:100DA0001A0001208DF81B0006A800F03BFD07B0DB
:100DB00000BD0000004001402DE9F0478146B9F137
:100DC000000F09D0B9F1010F09D0B9F1020F0AD013
:100DD000B9F1030F0DD109E01B4C01250CE01B4CB0
:100DE0004FF4005508E0194C402505E0174C8025CC
:100DF00002E00120BDE8F08700BF29462046FFF74A
:100E0000C5FB06464FF00108002718E041F2883084
:100E100001F0F5FCB24629462046FFF7B7FB06462F
:100E2000564508D108F1010000F0FF08B8F1030FA2
:100E300003DB3046DEE74FF00108781C87B2042F51
:100E4000E4DB3046D6E70000000002400008024024
:100E500038B500250020FFF7AFFF8DF80000012016
:100E6000FFF7AAFF8DF801000220FFF7A5FF8DF81C
:100E700002000320FFF7A0FF8DF80300E04804689C
:100E8000E048007800287DD09DF80100B8B9012520
:100E9000DD484078B0B90120DB494870DB48B0F943
:100EA000000001280EDDD9480088401E00B2D74955
:100EB00008800120D649087000F09AFC02E000206A
:100EC000D14948709DF80200B8B90125CE48807814
:100ED000B0B90120CC498870CC48B0F90000632833
:100EE0000EDACA480088401C00B2C84908800120B8
:100EF000C749087000F07CFC02E00020C2498870FD
:100F00009DF8030028BB0125BF48C07838B90120EF
:100F1000BD49C870BF48C4600020BF490870BE48C2
:100F2000007880BBBB48C068201AB0F57A7F30D308
:100F30000120B94908700020B2490870B74908700B
:100F40000120B349087000F053FC0120B449087037
:100F50001FE0AD48C078012818D1AF480078A8B983
:100F60000020A84908700120AC490870AD48046011
:100F70000020AD4908600120A549087000F038FC48
:100F8000012001E01BE004E0A549087000209E4913
:100F9000C87015B1FFF7F6F901E0FFF7E9F9A348CA
:100FA000007858B1A2480068201AFA2806D3022116
:100FB000A048FFF7F6FA00209C49087038BD9DF85C
:100FC0000000C8BB01259048007838B901208E493F
:100FD000087090480460002097490870964800788F
:100FE000002849D18B480068201AB0F57A7F43D396
:100FF0000120914908709148007808B9012000E06B
:1010000000208E4908700846007838B1012000F0B1
:10101000DFFB8B4800788B49087002E0002000F06D
:10102000D7FB00207D49087000F0E2FB01207849E1
:1010300008707B4908701FE0FFE7734800780128BB
:1010400017D17D480078A0B97C48007888B17E49E6
:101050000978481CC11700EB91718910A0EB810140
:10106000794A117000F0C4FB0120694908706C498D
:1010700008700020644908709DF8010048B90125F6
:101080006148407828BB01205F494870614844604E
:101090001FE05D48407801281BD168480078A8B15E
:1010A00068480078022811D0684890F9000010289C
:1010B0000CDD66480078401E40B26449087000F0BC
:1010C00097FB0120524908705549087000204E498D
:1010D00048709DF8020048B901254B48807828BB2C
:1010E0000120494988704B4884601FE04648807859
:1010F00001281BD151480078A8B152480078022835
:1011000011D0524890F900001E280CDA4F480078A0
:10111000401C40B24D49087000F06AFB01203C4978
:1011200008703F4908700020374988709DF8030017
:1011300048BB01253448C07838B901203249C8700D
:101140003448C46000203449087033480078E8BB54
:101150003048C068201AB0F57A7F39D301202E4973
:1011600008702849087000202C4908700A20274977
:1011700008800020244948708870012024490870A4
:1011800000F036FB24E02048C07801281BD122481B
:101190000078C0B929480078A8B12A480078401CD6
:1011A0002849087008460078042801DD00200870EE
:1011B000244800782249087000F01AFB01201449E5
:1011C00008701749087000200F4900E000E0C8705F
:1011D00015B1FFF7D7F801E0FFF7CAF81348007818
:1011E00058B113480068201AFA2806D30221114882
:1011F000FFF7D7F900200D49087000BFDEE60000B8
:101200003800002047000020410000204A00002054
:101210005C000020800000204600002048000020E4
:101220005D0000204C0000205000002054000020F1
:101230005800002000040240450000203C0000202F
:101240003E0000203D000020400000203F00002024
:101250002DE9F04106460F4614461D462B46224610
:1012600039463046FFF7CCFA04FB05F002490988FD
:10127000FFF7DEF9BDE8F081200000202DE9F05FE6
:101280008046894617461C46DDF828A00026B3464E
:10129000A3B23A4649464046FFF7B2FA2C20C106AF
:1012A000088007FB04F0C11700EB5171C1F3CF0BAD
:1012B000002516E0002610E01AF8050080213141D3
:1012C000084020B1094800880949088003E009481E
:1012D000008807490880701C86B2082EECDB681C69
:1012E00085B25D45E6DBBDE8F09F00001E000020F2
:1012F00000000260200000202DE9F84F04460F4650
:1013000091461D464FF0000A00F034F8B0F8048012
:1013100000F030F8C68823E0287800F03DF88246D7
:101320006D1C12480088001B404502DA0024B819E1
:1013300087B20F480088C01BB04200DA002733B2E2
:10134000424639462046CDF800A0FFF797FFB9F195
:10135000000F03D104EB080084B201E0A01984B2AD
:1013600028780028D8D1BDE8F88F0000220000209E
:101370002400002001480068704700001800002089
:1013800001480088704700002200002001480088C2
:10139000704700002400002001460A480068808849
:1013A000084B1B68DB885843A1F1200300FB03F2C4
:1013B000D01702EB5070034B1B681B6803EBE00077
:1013C000704700001800002010B5FFF741F9FFF743
:1013D000FFF8FFF765FA0120FFF7E8F8FFF738FAA2
:1013E00002480078FFF7D2F910BD00001C00002071
:1013F000F0B589B04FF6FF7000F0E4F9002000F07E
:10140000DBF9FFF7C3FF0646FFF7BAFF074633468F
:101410003A4600210846FFF71BFFA1480078002844
:1014200045D04FF6E07000F0CDF9002000F0C4F98F
:101430009CA3002214210A20FFF75EFF47F6FF70ED
:1014400000F0C0F9002000F0B7F999A3002246216E
:101450000A20FFF751FF9848B0F9002097A101A892
:1014600000F064FF4FF6FF7000F0ACF9002000F0D0
:10147000A3F901AB002246215020FFF73DFF47F6BC
:10148000FF7000F09FF9002000F096F98FA3002272
:1014900078210A20FFF730FF8FA3002296210A202F
:1014A000FFF72AFF00209049087009B0F0BD8F486F
:1014B0000078002836D14FF6FF7000F083F9002045
:1014C00000F07AF98AA3002264213C20FFF714FF80
:1014D0008A48007810B38A4800688A490968401A27
:1014E0004FF47A71B0FBF1F073490988081A06B21B
:1014F000002E00DA0026324683A101A800F016FF74
:101500004FF6E07000F05EF9002000F055F901ABF5
:1015100000228C213C20FFF7EFFE00BF0020724923
:101520000870C2E747F6FF7000F04CF9002000F0A9
:1015300043F979A3002214210A20FFF7DDFE784841
:10154000007805280ED2DFE800F0030507090B003C
:1015500074A409E076A407E078A405E07AA403E087
:101560007CA401E07EA400BF00BF4FF6FF7000F036
:1015700029F9002000F020F92346002214215020F0
:10158000FFF7BAFE47F6FF7000F01CF9002000F0EC
:1015900013F976A300223C210A20FFF7ADFE604834
:1015A000007802280DD14FF6E07000F00BF9002012
:1015B00000F002F961A300223C215020FFF79CFEBD
:1015C00013E06C4890F900206BA101A800F0AEFE7A
:1015D0004FF6FF7000F0F6F8002000F0EDF801ABD8
:1015E00000223C215020FFF787FE47F6FF7000F0F5
:1015F000E9F8002000F0E0F863A3002264210A204B
:10160000FFF77AFE6248007830B1012806D0022840
:1016100006D0032808D105E05EA507E060A505E037
:1016200062A503E045A501E04DA500BF00BF4FF650
:10163000FF7000F0C7F8002000F0BEF82B46002233
:1016400064215020FFF758FE2C48007810B32C4836
:1016500000682C490968401A4FF47A71B0FBF1F028
:1016600015490988081A06B2002E00DA002632460B
:1016700025A101A800F05AFE4FF6E07000F0A2F894
:10168000002000F099F801AB00228C210A20FFF71E
:1016900033FE00BF00201449087000BF05E70000BA
:1016A0004700002054696D657220536574757000A1
:1016B00054696D653A0000004A00002025642073DB
:1016C0002020202020202020202000004B455934BD
:1016D0003A204F4B00000000486F6C643A20436191
:1016E0006E63656C000000005C0000203C00002080
:1016F000506F776572204F4646000000480000207A
:10170000380000204C00002054696D65723A202595
:1017100064207320200000004D6F64653A000000D3
:101720003D000020436F6F6C2020202020202000EF
:101730004865617420202020202020004175746FAE
:10174000202020202020200046616E202020202004
:1017500020202000446568756D6964696679200001
:10176000556E6B6E6F776E202020200054656D7073
:101770003A0000003F000020256420432020202064
:10178000202020200000000046616E3A000000008A
:10179000400000204C6F77202020202020202000B7
:1017A0004D6964202020202020202000486967689F
:1017B00020202020202020000149088070470000C0
:1017C0002000002001490880704700001E00002012
:1017D00010B5044624B120210448FEF7E0FE03E0E2
:1017E00020210248FEF7DDFE10BD0000000402408B
:1017F00010B502210548FEF7D2FE01200449087009
:10180000044800680449086010BD0000000402405C
:1018100054000020380000205800002000BFFEE7E0
:101820007047000070B5002100230F22C4781CB35C
:10183000174C246804F4E064C4F5E064C4F30721A1
:10184000C1F10404E3B20A4144789C40E1B28478D7
:10185000144021430C07210E0E4C05786155047885
:1018600004F01F050124AC4005786D11AD0005F1B1
:10187000E025C5F8004109E0047804F01F050124C3
:10188000AC40054D0678761145F8264070BD000045
:101890000CED00E000E400E080E100E070470000B3
:1018A00010B54021034800F009FB0021014800F079
:1018B000F9FA10BD0044014010B56021034800F062
:1018C000FDFA0121014800F0EDFA10BD004401408D
:1018D00029B1064A12680243044B1A6004E0034A25
:1018E00012688243014B1A60704700003038024092
:1018F00029B1064A12680243044B1A6004E0034A05
:1019000012688243014B1A60704700003838024069
:1019100029B1064A12680243044B1A6004E0034AE4
:1019200012688243014B1A60704700004038024041
:1019300029B1064A12680243044B1A6004E0034AC4
:1019400012688243014B1A6070470000443802401D
:10195000F0B5002100220024022500260223324F88
:101960003F6807F00C0121B1042905D0082937D1BF
:1019700005E02E4F076036E02D4F076033E02A4F19
:101980003F1F3F68C7F38056274F3F1F3F6807F050
:101990003F036EB1264FB7FBF3F7DFF88CC0ACF115
:1019A000040CDCF800C0CCF3881C07FB0CF40CE042
:1019B0001E4FB7FBF3F7DFF870C0ACF1040CDCF896
:1019C00000C0CCF3881C07FB0CF4174F3F1F3F6887
:1019D000C7F301477F1C7D00B4FBF5F7076002E009
:1019E000124F076000BF00BF0F4F3F6807F0F001C4
:1019F0000909104F7A5C0768D74047600A4F3F6873
:101A000007F4E051890A0B4F7A5C4768D74087603A
:101A1000054F3F6807F46041490B064F7A5C476801
:101A2000D740C760F0BD0000083802400024F40031
:101A300000127A0026000020704700000CB500203C
:101A4000019000903448006840F4803032490860CA
:101A500000BF3148006800F4003000900198401C3D
:101A60000190009818B90198B0F5A04FF1D12A481B
:101A7000006800F4003010B10120009001E0002067
:101A800000900098012846D123484030006840F07B
:101A900080502149403108602048006840F44040AF
:101AA0001E4908601C48083000681B49083108605E
:101AB0000846006840F4004008600846006840F4AA
:101AC000A05008601648091F0860081F006840F011
:101AD0008070091F086000BF0F48006800F00070A8
:101AE0000028F9D040F205700E4908600A48083015
:101AF000006820F0030008490831086008460068C3
:101B000040F00200086000BF03480830006800F0A1
:101B10000C000828F8D10CBD0038024000700040CD
:101B200008544007003C024002480068401C01493C
:101B3000086070473800002030B5164800684FF440
:101B40007A72B0FBF2F1481EB0F1807F01D3012020
:101B50001BE0481E4FF0E022506150170F22002872
:101B600007DA13071D0E0C4B00F00F04241F1D5540
:101B700003E013071C0E094B1C5400BF00204FF05C
:101B8000E022906107201061002008B100BFFEE74D
:101B900030BD00006800002018ED00E000E400E027
:101BA00010B51548006840F47000134908601348E8
:101BB000006840F001001149086000200F49083119
:101BC00008600E4800680E4908400C4908600D483E
:101BD000091D0860081F006820F48020091F0860A4
:101BE000002006490C310860FFF728FF4FF0006025
:101BF00001498039086010BD88ED00E000380240DE
:101C0000FFFFF6FE10300024F0B50C46154600210B
:101C10000022068C4FF6FE773E400684018B028C34
:101C20004FF60C7631407E1C06EA03162E433143F4
:101C30004FF6F576324044F00106324301830284C8
:101C4000F0BDF0B50C461546002100220026078C99
:101C50004FF6EF7C07EA0C070784018B028C4FF6E6
:101C6000FF7707EA041640F6FF4739404FF6FF7743
:101C700007EA033739434FF6FF7707EA0527394369
:101C80004FF65F773A4046F010073A4301830284EB
:101C9000F0BDF0B50C461546002100220026078C49
:101CA0004FF6FF6C07EA0C070784818B028C4FF616
:101CB000FF7707EA04264FF60C7739404FF6FF7797
:101CC00007EA03172F4339434FF2FF573A4046F4D0
:101CD00080773A4381830284F0BDF0B50C46154607
:101CE000002100220026078C4EF6FF7C07EA0C0735
:101CF0000784818B028C4FF6FF7707EA043640F6A3
:101D0000FF4739404FF6FF7707EA052739434FF67B
:101D1000FF7707EA0337394345F6FF773A4046F441
:101D200080573A4381830284F0BD000010B5022140
:101D30004A4800F0CFF8002869D00221474800F057
:101D4000AEF80021454800F055F94548007800F00C
:101D5000100030B94248007840F010004049087047
:101D600010BD3E4800F0B3F8A0F50C703D49086086
:101D700008460068B0F5967F0AD908460068B0F5B5
:101D8000487F05D2384800684008374908603EE07F
:101D900034480068B0F5AF6F0FD932480068B0F52D
:101DA000E16F0AD23048006840082F4908600846B1
:101DB000006840F00040086029E02A48006840F6CA
:101DC000980188420BD92748006840F628218842AC
:101DD00005D226480068401C2449086017E02148C5
:101DE000006841F26801884211D91E48006841F23A
:101DF000883188420BD200201B49086018480078BF
:101E000040F0800016490870002018490860012140
:101E1000124800F05FF8F0B10121104800F03FF8DF
:101E20000F48007800F08000A8B10D48007820F03D
:101E300010000B4908700846007820F080000870F8
:101E4000094801680AA000F061FA0548007840F0EE
:101E500040000349087000BF82E7000000400140D5
:101E600000000020040000200C00002008000020DA
:101E70004952526563763A5B25585D0D0A000000B1
:101E800030B5002301248C40A3B2048C9C4304840D
:101E9000048C02FA01F5ADB22C43048430BDCA4370
:101EA0000282704721B1028842F00102028004E000
:101EB00002884FF6FE731A40028070470A460021DE
:101EC000018B4FF68F731940114301837047014610
:101ED000486B704730B50246002000230024158A65
:101EE00005EA0103958905EA010413B10CB101204B
:101EF00000E0002030BD70B505460C46208850B982
:101F00002389A28861882846FFF77EFEE18828465B
:101F100000F072F825E0208804280AD12389A288DD
:101F200061882846FFF78DFEE188284600F06DF8AD
:101F300017E0208808280AD12389A28861882846CA
:101F4000FFF7A7FEE188284600F06CF809E0238936
:101F5000A28861882846FFF7C0FEE188284600F085
:101F60006AF870BD1AB183890B43838102E08389CB
:101F70008B4383817047000070B50024002200234A
:101F8000058C4FF6FE7635400584028C8388048BE1
:101F90004FF68F752C40B51E2C400D882C43751EB6
:101FA0002A408D892A434D882A43104DA84202D0E9
:101FB0000F4DA84213D14FF6F7752A40CD892A4319
:101FC0004FF6FB752A408D882A434FF6FF652B405C
:101FD0004FF6FF552B400D8A2B434D8A2B438380B0
:101FE00004838D684563028470BD000000000140D9
:101FF0000004014041627047028B4FF6F3731A40B0
:102000000283028B0A4302837047028B4FF2FF3335
:102010001A400283028B4FF6FF7303EA01231A432F
:1020200002837047828B4FF6F3731A408283828B50
:102030000A4382837047828B4FF2FF331A408283B8
:10204000828B4FF6FF7303EA01231A4382837047A2
:1020500000220288184B98420ED0184B98420BD0A1
:10206000B0F1804F08D0164B984205D0154B9842DE
:1020700002D0154B984204D14FF68F731A404B880B
:102080001A43124B984207D0114B984204D04FF696
:10209000FF431A400B891A4302804B68C3620B88C6
:1020A0000385054B984202D0044B984201D18B7AAC
:1020B0000386012383827047000001400004014031
:1020C0000004004000080040000C004000100040E8
:1020D0000014004010B588B0044601210846FFF7FF
:1020E000F7FB01214804FFF713FC072202212248D5
:1020F000FEF729FA072203211F48FEF724FA0C20D5
:10210000069002208DF81C008DF81D0000208DF82F
:102110001E0001208DF81F0006A91748FEF7CBF915
:1021200002940020ADF80C00ADF80E00ADF81000E0
:10213000ADF814000C20ADF8120002A90F4800F011
:102140006FF826208DF8040003208DF805008DF827
:10215000060001208DF8070001A8FFF763FB0122AC
:1021600040F22551054800F036F80121034800F0FF
:1021700019F808B010BD0000000002400044004003
:1021800010B500242021064800F018F838B10448A2
:1021900000F0B0F8C4B22146014800F0B0F810BD1C
:1021A0000044004021B1828942F40052828104E05F
:1021B00082894DF6FF731A408281704702460020E3
:1021C000B1F5007F00D100BF13880B400BB1012097
:1021D00000E000207047F0B50346002400260025EB
:1021E000002040F66A17B94200D100BF1846C1F37B
:1021F000421401F01F06012707FA06F5012C01D150
:102200000C3004E0022C01D1103000E014301AB17F
:1022100007682F43076002E00768AF430760F0BD1F
:102220002DE9FF4705460E460024A14600BFA04603
:10223000B08900B100BF2C8A24F44054F0880443D4
:102240002C82AC8941F20C608443B0883189084308
:10225000718908430443AC81AC8A24F44074B0898A
:102260000443AC826846FFF773FB2048854202D0E6
:102270001F48854202D1DDF80C9001E0DDF808909E
:10228000A88900F4004040B109EBC90000EB091037
:1022900031684900B0FBF1F707E009EBC90000EB3A
:1022A000091031688900B0FBF1F76420B7FBF0F04A
:1022B00004012009642101FB1078A88900F4004082
:1022C00040B1322000EBC800B0FBF1F000F0070095
:1022D000044308E0322000EB08106421B0FBF1F069
:1022E00000F00F0004432C81BDE8FF87001001407F
:1022F0000014014001468888C0F308007047C1F30C
:1023000008028280704700BFFEE700000FB4054B53
:1023100010B503A9044A029800F02CF810BC5DF82F
:1023200014FB00001D2800087C0000200FB4084B9F
:1023300010B504A902AA039800F01CF8044602A9EB
:10234000002000F048FA204610BC5DF814FB0000A5
:10235000D727000802E008C8121F08C1002AFAD1D6
:1023600070477047002001E001C1121F002AFBD115
:10237000704700002DE9FF4F8DB00F46054600263F
:1023800006E025280BD0DDE90F1290476D1C761C66
:1023900028780028F5D111B03046BDE8F08F002430
:1023A000A246A1460122EC4900E0044315F8013F92
:1023B000203B02FA03F00842F7D128782A2810D0EF
:1023C0006FF02F022878A0F13001092914D80AEB08
:1023D0008A0102EB410144F0020400EB010A6D1C8A
:1023E000F0E701CF5FEA000A03D544F40054CAF1D4
:1023F000000A44F002046D1C28782E2817D115F825
:10240000010F44F004042A280ED06FF02F02287820
:10241000A0F1300109290AD809EB890102EB410139
:1024200000EB01096D1CF2E757F8049B6D1C28783E
:102430006C280FD006DC4C2817D068280DD06A28ED
:1024400014D104E0742810D07A280FD10DE044F4A0
:1024500000140AE044F4801401E044F44014697864
:10246000814202D104F580146D1C6D1C2A786E2AFD
:102470001FD00CDC632A31D004DC002A8BD0582A10
:1024800011D1A3E0642A68D0692A0CD165E0732ACF
:102490002ED004DC6F2A73D0702A04D19BE0752AF9
:1024A0006FD0782A6ED01046DDE90F129047761C67
:1024B00050E1C4F30250022806D0032809D00428B2
:1024C00001CF09D0066045E101CFF117C0E90061F5
:1024D00040E101CF06803DE106703BE117F8040BB7
:1024E0008DF8000000208DF80100EB46012003E08C
:1024F00057F804BB4FF0FF3061074FF0000102D4E2
:102500000DE008F10101884649450FDA8045F8DB06
:102510001BF808100029F4D108E008F101018846F1
:102520008142FADB1BF808100029F6D1DDE90F2300
:10253000AAEB08008146214600F036F9304400EB52
:10254000080604E0DDE90F121BF8010B9047B8F113
:102550000108F7D221464846F7E00A21C4F30253A6
:102560004FF0000B0891022B04D001CFC117032BB1
:1025700009D00AE0FF1D27F00707F7E8020108E08D
:1025800032E01FE020E000B2C117042B01D140B2BD
:10259000C117031E71F1000307DA4FF0000CD0EBF6
:1025A0000C006CEB01012D2302E0230504D52B2345
:1025B0008DF82430012303E0E30701D02023F7E75F
:1025C000984658E00A2110E010210EE010204FF04C
:1025D000000B08900CE010214FF0000B44F00404B5
:1025E0004FF00809089103E008214FF0000B089113
:1025F000C4F30253022B04D001CF0021032B06D0D9
:1026000006E0FF1D27F00707F7E8020103E080B2AC
:10261000042B00D1C0B24FF0000823072BD5702A3D
:1026200007D0DDF820C08CF0100C5CEA0B0C05D054
:102630000EE040238DF82430012308E050EA010326
:1026400006D030238DF824308DF8252002239846BB
:10265000DDF820C08CF0080C5CEA0B0C0BD150EAC2
:10266000010301D1630706D530238DF824304FF0E4
:102670000108A9F10109582A04D038A20B9208AA2E
:102680000A920BE03AA2F9E75B46089AFDF7AAFD29
:102690000B9B9B5C0A9A521E0A92137050EA01022D
:1026A000F2D10A98ADEB000000F1200B600702D5D3
:1026B00024F4803401E04FF00109D94502DDA9EB93
:1026C0000B0000E0002000EB0B0141440890AAEB56
:1026D000010AE00306D4DDE90F232146504600F04D
:1026E00063F806444FF0000908E009A911F8090051
:1026F000DDE90F12904709F10109761CC145F4DBB1
:10270000E0030CD5DDE90F232146504600F04CF8DC
:10271000064404E0DDE90F1230209047761C08994A
:10272000481E08900029F5DC08E00A980A9900780C
:10273000491C0A91DDE90F129047761CBBF100019C
:10274000ABF1010BF1DC21465046DDE90F2300F02F
:1027500019F806446D1C1BE609280100303132339C
:1027600034353637383961626364656600000000CD
:1027700030313233343536373839414243444546B7
:10278000000000002DE9F041044600251E461746D2
:10279000880404D405E039462020B0476D1C641E2F
:1027A000F9D52846BDE8F0812DE9F0410446002521
:1027B0001E469046C80301D5302700E02027880434
:1027C00004D505E041463846B0476D1C641EF9D576
:1027D0002846BDE8F0810A68531C0B6010707047F2
:1027E00007E048F2084100BF0A1EA1F1010399B2B7
:1027F000FAD1021EA0F1010398B2F2D1704706E0AF
:102800001F2100BF0A1EA1F1010399B2FAD1021ED5
:10281000A0F1010398B2F3D17047000070B50446EF
:102820000D46E1B20548FFF76AFD00BF802103486D
:10283000FFF7C4FC0028F9D0204670BD00440040DA
:10284000FFF7AEF9FFF778F9FDF72EFD4FF4E13011
:10285000FFF740FCFEF7B8FDFEF716FAFEF77CF92D
:1028600047F6FF70FEF7AEFF0020FEF7A5FFFEF76C
:102870008DFD0446FEF784FD054623462A460021C9
:102880000846FEF7E5FC4FF6FF70FEF79BFF0020C1
:10289000FEF792FF3AA3002264212820FEF72CFDC8
:1028A0003AA300228C211420FEF726FD4FF47A7003
:1028B000FFF796FF0120394908705FE0FEF7C8FA7C
:1028C0003748007820B1002035490870FEF770F9CC
:1028D00034480078002838D0334800683349096804
:1028E000401A4FF47A71B0FBF1F43148B0F90000AE
:1028F000844220D300202B4908702E48007808B964
:10290000012000E000202B4908700846007838B10B
:102910000120FEF75DFF284800782849087002E092
:102920000020FEF755FFFEF763FF01201B490870EA
:102930001B49087008E022480068844204D02048FF
:10294000046001201549087000BFFEF7CBF813485A
:10295000007808B1FEF74CFD1248007810B919480C
:10296000007820B101211848FDF719FE03E001218C
:102970001548FDF716FE0A20FFF732FF9EE700001C
:1029800041432052656D6F7465000000496E6974A3
:1029900069616C697A696E672E2E2E005C000020DA
:1029A0005D00002048000020380000204C0000207E
:1029B0004A0000203C0000203E0000203D00002096
:1029C00050000020470000200004024010B5134BC7
:1029D0001B68134CB3FBF4F303FB00F2114B1B68B1
:1029E00003F080732BB90F4B1B6843F080730D4CC1
:1029F00023600D4B1B6803F001032BB90A4B1B68C6
:102A000043F00103084C2360074B596800BF064B95
:102A10005B685B1A9342FAD310BD00006800002087
:102A200040420F00FCED00E0001000E0000000005C
:102A3000000000000000000000000000000000187E
:102A400018181818180800081800000000000034B2
:102A5000242424000000000000000000000000000A
:102A600016247F2424247E24240000000000000873
:102A70003E6848681C1612127C10100000000061AD
:102A8000D296740810162949C60000000000000004
:102A90003C646438724ACE467F0000000000001893
:102AA00018181800000000000000000000000004DA
:102AB000081810303030301010180C0400000020BE
:102AC0001008080C0404040C08181020000000086A
:102AD0000A341C6A0800000000000000000000002A
:102AE00000001818187F18181800000000000000D7
:102AF000000000000000001818083000000000006E
:102B000000000000003C0000000000000000000089
:102B10000000000000000018180000000000000283
:102B200006040C08081010202040000000000000DF
:102B30003C6642475B7342663C00000000000000B8
:102B400018784808080808087E0000000000000007
:102B50003C460606040810207E000000000000002D
:102B60007C0606043C0202067C0000000000000017
:102B70000C1C14246444FF04040000000000000046
:102B80007E6060607E0202067C00000000000000A3
:102B90001E306048764242623C00000000000000A7
:102BA0007E0206040C08181030000000000000002F
:102BB0003C6242361C6642423C00000000000000BD
:102BC0003C664242661A02047800000000000000E1
:102BD0000000181800000018180000000000000095
:102BE000000018180000001818083000000000004D
:102BF000000004183060100C060000000000000007
:102C0000000000007E007E000000000000000000C8
:102C10000000301804060C102000000000000030F6
:102C20001C06060618100010100000000000001C12
:102C3000224141DDB5A5A5AF94C0403C0000000095
:102C4000181C342426627E43C100000000000000EE
:102C50007C4642467C4242427C000000000000006C
:102C60001E204040404040603E0000000000000048
:102C70007C46424343434246780000000000000087
:102C80007E6060607E6060607E000000000000008A
:102C90007E6060607E606060600000000000000098
:102CA0001E604040CE4242623E0000000000000034
:102CB000424242427E424242420000000000000086
:102CC0007E181818181818187E0000000000000060
:102CD0007C040404040404447800000000000000A4
:102CE0004244485070584C4442000000000000002C
:102CF00020202020202020203E0000000000000096
:102D00006266675F5B5BC1C1C1000000000000003C
:102D1000626272525A4A4E464600000000000000AD
:102D20003C6243C3C3C343623C0000000000000098
:102D30007C464242467840404000000000000000CF
:102D40003C6243C3C3C343623C180F000000000051
:102D50007C6662667C6C64666200000000000000B5
:102D60003E6040601C0602027C0000000000000083
:102D70007F18181818181818180000000000000014
:102D800042424242424242623C00000000000000D7
:102D9000C14342622624341C1800000000000000D9
:102DA000C1C141495B5B766666000000000000001F
:102DB00043663418181C2466C3000000000000009D
:102DC000C14266341C1818181800000000000000EA
:102DD0007E02040C181020607E0000000000001C21
:102DE00010101010101010101010101C00000040D7
:102DF0002020101008080C04060200000000003C0F
:102E00000C0C0C0C0C0C0C0C0C0C0C3C0000000002
:102E1000181C2462000000000000000000000000F8
:102E20000000000000000000000000FF0000002083
:102E30001000000000000000000000000000000082
:102E400000003C06023E42467A00000000000040BE
:102E500040405C62424242427C00000000000000B0
:102E600000001E20604060203E00000000000002C4
:102E700002023E62424242663A0000000000000048
:102E800000003C62427E40603E0000000000000FF7
:102E90001810107E1010101010000000000000002C
:102EA00000003F66426658403E43423C00000040FE
:102EB00040405C6242424242420000000000001872
:102EC00018007808080808087E00000000000004C8
:102ED0000C007C040404040404040C78000000606A
:102EE0006060626C787068646200000000000078C6
:102EF00008080808080808087E0000000000000014
:102F00000000764B4B4B4B4B4B0000000000000089
:102F100000005C62424242424200000000000000A9
:102F200000003C62424342623C000000000000009E
:102F300000005C62424242427C404040000000008F
:102F400000003E62424242663A0202020000000075
:102F500000006E72636060606000000000000000AE
:102F600000003E20203C06027C0000000000000023
:102F70001010FE10101010101E00000000000000C5
:102F800000004242424242663A0000000000000057
:102F900000004342662434181800000000000000BE
:102FA0000000C1C15B5A5E666600000000000000C0
:102FB000000062261C181C266200000000000000B1
:102FC000000043426624341C181830E00000000062
:102FD00000007E060C1810207E0000000000000E8D
:102FE00018101010307010101010180E0000080883
:102FF0000808080808080808080808080000003041
:10300000180808080C0E080808081830000000000E
:1030100000000000714B0600000000009030000826
:10302000A43000089C30000898300008B030000838
:10303000AC30000884300008883000089C3000085C
:103040004952204465636F6465643A20506F776528
:10305000723D25732C2054656D703D2564432C20F2
:103060004D6F64653D25732C2046616E3D25732CA4
:103070002054696D65723D257328256473290D0AF6
:10308000000000004D6964004869676800000000A6
:10309000436F6F6C0000000046616E004175746FF5
:1030A0000000000048656174000000004C6F77006C
:1030B000446568756D69646966790000DC300008F4
:1030C0000000002080000000542300085C3100084C
:1030D00080000020100400006423000800000000AD
:1030E0000000000000000000000000002C2A000882
:1030F000080010001000002001000000FFFFF00099
:10310000400100000000010203040102030406075D
:1031100008090000000000000000001A0300000081
:103120000000000000000A00000000000000000095
:10313000000000000000000001000000000000008E
:1031400000000000007A030A0000000000000000F8
:0C3150000102030406070809000000004B
:040000050800018965
:00000001FF
